{
  "contractName": "DiscordInvite",
  "abi": [
    {
      "inputs": [],
      "stateMutability": "nonpayable",
      "type": "constructor"
    },
    {
      "anonymous": false,
      "inputs": [
        {
          "indexed": true,
          "internalType": "address",
          "name": "owner",
          "type": "address"
        },
        {
          "indexed": true,
          "internalType": "address",
          "name": "approved",
          "type": "address"
        },
        {
          "indexed": true,
          "internalType": "uint256",
          "name": "tokenId",
          "type": "uint256"
        }
      ],
      "name": "Approval",
      "type": "event"
    },
    {
      "anonymous": false,
      "inputs": [
        {
          "indexed": true,
          "internalType": "address",
          "name": "owner",
          "type": "address"
        },
        {
          "indexed": true,
          "internalType": "address",
          "name": "operator",
          "type": "address"
        },
        {
          "indexed": false,
          "internalType": "bool",
          "name": "approved",
          "type": "bool"
        }
      ],
      "name": "ApprovalForAll",
      "type": "event"
    },
    {
      "anonymous": false,
      "inputs": [
        {
          "indexed": true,
          "internalType": "address",
          "name": "previousOwner",
          "type": "address"
        },
        {
          "indexed": true,
          "internalType": "address",
          "name": "newOwner",
          "type": "address"
        }
      ],
      "name": "OwnershipTransferred",
      "type": "event"
    },
    {
      "anonymous": false,
      "inputs": [
        {
          "indexed": true,
          "internalType": "address",
          "name": "from",
          "type": "address"
        },
        {
          "indexed": true,
          "internalType": "address",
          "name": "to",
          "type": "address"
        },
        {
          "indexed": true,
          "internalType": "uint256",
          "name": "tokenId",
          "type": "uint256"
        }
      ],
      "name": "Transfer",
      "type": "event"
    },
    {
      "inputs": [
        {
          "internalType": "address",
          "name": "to",
          "type": "address"
        },
        {
          "internalType": "uint256",
          "name": "tokenId",
          "type": "uint256"
        }
      ],
      "name": "approve",
      "outputs": [],
      "stateMutability": "nonpayable",
      "type": "function"
    },
    {
      "inputs": [
        {
          "internalType": "address",
          "name": "owner",
          "type": "address"
        }
      ],
      "name": "balanceOf",
      "outputs": [
        {
          "internalType": "uint256",
          "name": "",
          "type": "uint256"
        }
      ],
      "stateMutability": "view",
      "type": "function",
      "constant": true
    },
    {
      "inputs": [
        {
          "internalType": "uint256",
          "name": "tokenId",
          "type": "uint256"
        }
      ],
      "name": "getApproved",
      "outputs": [
        {
          "internalType": "address",
          "name": "",
          "type": "address"
        }
      ],
      "stateMutability": "view",
      "type": "function",
      "constant": true
    },
    {
      "inputs": [
        {
          "internalType": "address",
          "name": "owner",
          "type": "address"
        },
        {
          "internalType": "address",
          "name": "operator",
          "type": "address"
        }
      ],
      "name": "isApprovedForAll",
      "outputs": [
        {
          "internalType": "bool",
          "name": "",
          "type": "bool"
        }
      ],
      "stateMutability": "view",
      "type": "function",
      "constant": true
    },
    {
      "inputs": [],
      "name": "name",
      "outputs": [
        {
          "internalType": "string",
          "name": "",
          "type": "string"
        }
      ],
      "stateMutability": "view",
      "type": "function",
      "constant": true
    },
    {
      "inputs": [],
      "name": "owner",
      "outputs": [
        {
          "internalType": "address",
          "name": "",
          "type": "address"
        }
      ],
      "stateMutability": "view",
      "type": "function",
      "constant": true
    },
    {
      "inputs": [
        {
          "internalType": "uint256",
          "name": "tokenId",
          "type": "uint256"
        }
      ],
      "name": "ownerOf",
      "outputs": [
        {
          "internalType": "address",
          "name": "",
          "type": "address"
        }
      ],
      "stateMutability": "view",
      "type": "function",
      "constant": true
    },
    {
      "inputs": [],
      "name": "renounceOwnership",
      "outputs": [],
      "stateMutability": "nonpayable",
      "type": "function"
    },
    {
      "inputs": [
        {
          "internalType": "address",
          "name": "from",
          "type": "address"
        },
        {
          "internalType": "address",
          "name": "to",
          "type": "address"
        },
        {
          "internalType": "uint256",
          "name": "tokenId",
          "type": "uint256"
        }
      ],
      "name": "safeTransferFrom",
      "outputs": [],
      "stateMutability": "nonpayable",
      "type": "function"
    },
    {
      "inputs": [
        {
          "internalType": "address",
          "name": "from",
          "type": "address"
        },
        {
          "internalType": "address",
          "name": "to",
          "type": "address"
        },
        {
          "internalType": "uint256",
          "name": "tokenId",
          "type": "uint256"
        },
        {
          "internalType": "bytes",
          "name": "data",
          "type": "bytes"
        }
      ],
      "name": "safeTransferFrom",
      "outputs": [],
      "stateMutability": "nonpayable",
      "type": "function"
    },
    {
      "inputs": [
        {
          "internalType": "address",
          "name": "operator",
          "type": "address"
        },
        {
          "internalType": "bool",
          "name": "approved",
          "type": "bool"
        }
      ],
      "name": "setApprovalForAll",
      "outputs": [],
      "stateMutability": "nonpayable",
      "type": "function"
    },
    {
      "inputs": [],
      "name": "symbol",
      "outputs": [
        {
          "internalType": "string",
          "name": "",
          "type": "string"
        }
      ],
      "stateMutability": "view",
      "type": "function",
      "constant": true
    },
    {
      "inputs": [
        {
          "internalType": "uint256",
          "name": "index",
          "type": "uint256"
        }
      ],
      "name": "tokenByIndex",
      "outputs": [
        {
          "internalType": "uint256",
          "name": "",
          "type": "uint256"
        }
      ],
      "stateMutability": "view",
      "type": "function",
      "constant": true
    },
    {
      "inputs": [
        {
          "internalType": "address",
          "name": "owner",
          "type": "address"
        },
        {
          "internalType": "uint256",
          "name": "index",
          "type": "uint256"
        }
      ],
      "name": "tokenOfOwnerByIndex",
      "outputs": [
        {
          "internalType": "uint256",
          "name": "",
          "type": "uint256"
        }
      ],
      "stateMutability": "view",
      "type": "function",
      "constant": true
    },
    {
      "inputs": [
        {
          "internalType": "uint256",
          "name": "tokenId",
          "type": "uint256"
        }
      ],
      "name": "tokenURI",
      "outputs": [
        {
          "internalType": "string",
          "name": "",
          "type": "string"
        }
      ],
      "stateMutability": "view",
      "type": "function",
      "constant": true
    },
    {
      "inputs": [],
      "name": "totalSupply",
      "outputs": [
        {
          "internalType": "uint256",
          "name": "",
          "type": "uint256"
        }
      ],
      "stateMutability": "view",
      "type": "function",
      "constant": true
    },
    {
      "inputs": [
        {
          "internalType": "address",
          "name": "from",
          "type": "address"
        },
        {
          "internalType": "address",
          "name": "to",
          "type": "address"
        },
        {
          "internalType": "uint256",
          "name": "tokenId",
          "type": "uint256"
        }
      ],
      "name": "transferFrom",
      "outputs": [],
      "stateMutability": "nonpayable",
      "type": "function"
    },
    {
      "inputs": [
        {
          "internalType": "address",
          "name": "newOwner",
          "type": "address"
        }
      ],
      "name": "transferOwnership",
      "outputs": [],
      "stateMutability": "nonpayable",
      "type": "function"
    },
    {
      "inputs": [
        {
          "internalType": "address",
          "name": "to",
          "type": "address"
        }
      ],
      "name": "safeMint",
      "outputs": [],
      "stateMutability": "nonpayable",
      "type": "function"
    },
    {
      "inputs": [
        {
          "internalType": "bytes4",
          "name": "interfaceId",
          "type": "bytes4"
        }
      ],
      "name": "supportsInterface",
      "outputs": [
        {
          "internalType": "bool",
          "name": "",
          "type": "bool"
        }
      ],
      "stateMutability": "view",
      "type": "function",
      "constant": true
    }
  ],
  "bytecode": "0x60806040523480156200001157600080fd5b506040518060400160405280601381526020017f4445505420446973636f726420496e76697465000000000000000000000000008152506040518060400160405280600381526020017f4444490000000000000000000000000000000000000000000000000000000000815250816000908051906020019062000096929190620001a6565b508060019080519060200190620000af929190620001a6565b505050620000d2620000c6620000d860201b60201c565b620000e060201b60201c565b620002bb565b600033905090565b6000600a60009054906101000a900473ffffffffffffffffffffffffffffffffffffffff16905081600a60006101000a81548173ffffffffffffffffffffffffffffffffffffffff021916908373ffffffffffffffffffffffffffffffffffffffff1602179055508173ffffffffffffffffffffffffffffffffffffffff168173ffffffffffffffffffffffffffffffffffffffff167f8be0079c531659141344cd1fd0a4f28419497f9722a3daafe3b4186f6b6457e060405160405180910390a35050565b828054620001b49062000256565b90600052602060002090601f016020900481019282620001d8576000855562000224565b82601f10620001f357805160ff191683800117855562000224565b8280016001018555821562000224579182015b828111156200022357825182559160200191906001019062000206565b5b50905062000233919062000237565b5090565b5b808211156200025257600081600090555060010162000238565b5090565b600060028204905060018216806200026f57607f821691505b602082108114156200028657620002856200028c565b5b50919050565b7f4e487b7100000000000000000000000000000000000000000000000000000000600052602260045260246000fd5b6130c080620002cb6000396000f3fe608060405234801561001057600080fd5b506004361061012c5760003560e01c80636352211e116100ad578063a22cb46511610071578063a22cb46514610343578063b88d4fde1461035f578063c87b56dd1461037b578063e985e9c5146103ab578063f2fde38b146103db5761012c565b80636352211e1461029d57806370a08231146102cd578063715018a6146102fd5780638da5cb5b1461030757806395d89b41146103255761012c565b806323b872dd116100f457806323b872dd146101e95780632f745c591461020557806340d097c31461023557806342842e0e146102515780634f6ccce71461026d5761012c565b806301ffc9a71461013157806306fdde0314610161578063081812fc1461017f578063095ea7b3146101af57806318160ddd146101cb575b600080fd5b61014b6004803603810190610146919061227c565b6103f7565b604051610158919061265f565b60405180910390f35b610169610409565b604051610176919061267a565b60405180910390f35b610199600480360381019061019491906122ce565b61049b565b6040516101a691906125f8565b60405180910390f35b6101c960048036038101906101c49190612240565b6104e1565b005b6101d36105f9565b6040516101e0919061287c565b60405180910390f35b61020360048036038101906101fe919061213a565b610606565b005b61021f600480360381019061021a9190612240565b610666565b60405161022c919061287c565b60405180910390f35b61024f600480360381019061024a91906120d5565b61070b565b005b61026b6004803603810190610266919061213a565b610739565b005b610287600480360381019061028291906122ce565b610759565b604051610294919061287c565b60405180910390f35b6102b760048036038101906102b291906122ce565b6107f0565b6040516102c491906125f8565b60405180910390f35b6102e760048036038101906102e291906120d5565b6108a2565b6040516102f4919061287c565b60405180910390f35b61030561095a565b005b61030f61096e565b60405161031c91906125f8565b60405180910390f35b61032d610998565b60405161033a919061267a565b60405180910390f35b61035d60048036038101906103589190612204565b610a2a565b005b61037960048036038101906103749190612189565b610a40565b005b610395600480360381019061039091906122ce565b610aa2565b6040516103a2919061267a565b60405180910390f35b6103c560048036038101906103c091906120fe565b610b0a565b6040516103d2919061265f565b60405180910390f35b6103f560048036038101906103f091906120d5565b610b9e565b005b600061040282610c22565b9050919050565b60606000805461041890612aa1565b80601f016020809104026020016040519081016040528092919081815260200182805461044490612aa1565b80156104915780601f1061046657610100808354040283529160200191610491565b820191906000526020600020905b81548152906001019060200180831161047457829003601f168201915b5050505050905090565b60006104a682610c9c565b6004600083815260200190815260200160002060009054906101000a900473ffffffffffffffffffffffffffffffffffffffff169050919050565b60006104ec826107f0565b90508073ffffffffffffffffffffffffffffffffffffffff168373ffffffffffffffffffffffffffffffffffffffff16141561055d576040517f08c379a00000000000000000000000000000000000000000000000000000000081526004016105549061281c565b60405180910390fd5b8073ffffffffffffffffffffffffffffffffffffffff1661057c610ce7565b73ffffffffffffffffffffffffffffffffffffffff1614806105ab57506105aa816105a5610ce7565b610b0a565b5b6105ea576040517f08c379a00000000000000000000000000000000000000000000000000000000081526004016105e19061279c565b60405180910390fd5b6105f48383610cef565b505050565b6000600880549050905090565b610617610611610ce7565b82610da8565b610656576040517f08c379a000000000000000000000000000000000000000000000000000000000815260040161064d9061285c565b60405180910390fd5b610661838383610e3d565b505050565b6000610671836108a2565b82106106b2576040517f08c379a00000000000000000000000000000000000000000000000000000000081526004016106a99061269c565b60405180910390fd5b600660008473ffffffffffffffffffffffffffffffffffffffff1673ffffffffffffffffffffffffffffffffffffffff168152602001908152602001600020600083815260200190815260200160002054905092915050565b6107136110a4565b600061071f600b611122565b905061072b600b611130565b6107358282611146565b5050565b61075483838360405180602001604052806000815250610a40565b505050565b60006107636105f9565b82106107a4576040517f08c379a000000000000000000000000000000000000000000000000000000000815260040161079b9061283c565b60405180910390fd5b600882815481106107de577f4e487b7100000000000000000000000000000000000000000000000000000000600052603260045260246000fd5b90600052602060002001549050919050565b6000806002600084815260200190815260200160002060009054906101000a900473ffffffffffffffffffffffffffffffffffffffff169050600073ffffffffffffffffffffffffffffffffffffffff168173ffffffffffffffffffffffffffffffffffffffff161415610899576040517f08c379a0000000000000000000000000000000000000000000000000000000008152600401610890906127fc565b60405180910390fd5b80915050919050565b60008073ffffffffffffffffffffffffffffffffffffffff168273ffffffffffffffffffffffffffffffffffffffff161415610913576040517f08c379a000000000000000000000000000000000000000000000000000000000815260040161090a9061277c565b60405180910390fd5b600360008373ffffffffffffffffffffffffffffffffffffffff1673ffffffffffffffffffffffffffffffffffffffff168152602001908152602001600020549050919050565b6109626110a4565b61096c6000611164565b565b6000600a60009054906101000a900473ffffffffffffffffffffffffffffffffffffffff16905090565b6060600180546109a790612aa1565b80601f01602080910402602001604051908101604052809291908181526020018280546109d390612aa1565b8015610a205780601f106109f557610100808354040283529160200191610a20565b820191906000526020600020905b815481529060010190602001808311610a0357829003601f168201915b5050505050905090565b610a3c610a35610ce7565b838361122a565b5050565b610a51610a4b610ce7565b83610da8565b610a90576040517f08c379a0000000000000000000000000000000000000000000000000000000008152600401610a879061285c565b60405180910390fd5b610a9c84848484611397565b50505050565b6060610aad82610c9c565b6000610ab76113f3565b90506000815111610ad75760405180602001604052806000815250610b02565b80610ae18461140a565b604051602001610af29291906125d4565b6040516020818303038152906040525b915050919050565b6000600560008473ffffffffffffffffffffffffffffffffffffffff1673ffffffffffffffffffffffffffffffffffffffff16815260200190815260200160002060008373ffffffffffffffffffffffffffffffffffffffff1673ffffffffffffffffffffffffffffffffffffffff16815260200190815260200160002060009054906101000a900460ff16905092915050565b610ba66110a4565b600073ffffffffffffffffffffffffffffffffffffffff168173ffffffffffffffffffffffffffffffffffffffff161415610c16576040517f08c379a0000000000000000000000000000000000000000000000000000000008152600401610c0d906126dc565b60405180910390fd5b610c1f81611164565b50565b60007f780e9d63000000000000000000000000000000000000000000000000000000007bffffffffffffffffffffffffffffffffffffffffffffffffffffffff1916827bffffffffffffffffffffffffffffffffffffffffffffffffffffffff19161480610c955750610c94826115b7565b5b9050919050565b610ca581611699565b610ce4576040517f08c379a0000000000000000000000000000000000000000000000000000000008152600401610cdb906127fc565b60405180910390fd5b50565b600033905090565b816004600083815260200190815260200160002060006101000a81548173ffffffffffffffffffffffffffffffffffffffff021916908373ffffffffffffffffffffffffffffffffffffffff160217905550808273ffffffffffffffffffffffffffffffffffffffff16610d62836107f0565b73ffffffffffffffffffffffffffffffffffffffff167f8c5be1e5ebec7d5bd14f71427d1e84f3dd0314c0f7b2291e5b200ac8c7c3b92560405160405180910390a45050565b600080610db4836107f0565b90508073ffffffffffffffffffffffffffffffffffffffff168473ffffffffffffffffffffffffffffffffffffffff161480610df65750610df58185610b0a565b5b80610e3457508373ffffffffffffffffffffffffffffffffffffffff16610e1c8461049b565b73ffffffffffffffffffffffffffffffffffffffff16145b91505092915050565b8273ffffffffffffffffffffffffffffffffffffffff16610e5d826107f0565b73ffffffffffffffffffffffffffffffffffffffff1614610eb3576040517f08c379a0000000000000000000000000000000000000000000000000000000008152600401610eaa906126fc565b60405180910390fd5b600073ffffffffffffffffffffffffffffffffffffffff168273ffffffffffffffffffffffffffffffffffffffff161415610f23576040517f08c379a0000000000000000000000000000000000000000000000000000000008152600401610f1a9061273c565b60405180910390fd5b610f2e838383611705565b610f39600082610cef565b6001600360008573ffffffffffffffffffffffffffffffffffffffff1673ffffffffffffffffffffffffffffffffffffffff1681526020019081526020016000206000828254610f8991906129b7565b925050819055506001600360008473ffffffffffffffffffffffffffffffffffffffff1673ffffffffffffffffffffffffffffffffffffffff1681526020019081526020016000206000828254610fe09190612930565b92505081905550816002600083815260200190815260200160002060006101000a81548173ffffffffffffffffffffffffffffffffffffffff021916908373ffffffffffffffffffffffffffffffffffffffff160217905550808273ffffffffffffffffffffffffffffffffffffffff168473ffffffffffffffffffffffffffffffffffffffff167fddf252ad1be2c89b69c2b068fc378daa952ba7f163c4a11628f55a4df523b3ef60405160405180910390a461109f838383611715565b505050565b6110ac610ce7565b73ffffffffffffffffffffffffffffffffffffffff166110ca61096e565b73ffffffffffffffffffffffffffffffffffffffff1614611120576040517f08c379a0000000000000000000000000000000000000000000000000000000008152600401611117906127dc565b60405180910390fd5b565b600081600001549050919050565b6001816000016000828254019250508190555050565b61116082826040518060200160405280600081525061171a565b5050565b6000600a60009054906101000a900473ffffffffffffffffffffffffffffffffffffffff16905081600a60006101000a81548173ffffffffffffffffffffffffffffffffffffffff021916908373ffffffffffffffffffffffffffffffffffffffff1602179055508173ffffffffffffffffffffffffffffffffffffffff168173ffffffffffffffffffffffffffffffffffffffff167f8be0079c531659141344cd1fd0a4f28419497f9722a3daafe3b4186f6b6457e060405160405180910390a35050565b8173ffffffffffffffffffffffffffffffffffffffff168373ffffffffffffffffffffffffffffffffffffffff161415611299576040517f08c379a00000000000000000000000000000000000000000000000000000000081526004016112909061275c565b60405180910390fd5b80600560008573ffffffffffffffffffffffffffffffffffffffff1673ffffffffffffffffffffffffffffffffffffffff16815260200190815260200160002060008473ffffffffffffffffffffffffffffffffffffffff1673ffffffffffffffffffffffffffffffffffffffff16815260200190815260200160002060006101000a81548160ff0219169083151502179055508173ffffffffffffffffffffffffffffffffffffffff168373ffffffffffffffffffffffffffffffffffffffff167f17307eab39ab6107e8899845ad3d59bd9653f200f220920489ca2b5937696c318360405161138a919061265f565b60405180910390a3505050565b6113a2848484610e3d565b6113ae84848484611775565b6113ed576040517f08c379a00000000000000000000000000000000000000000000000000000000081526004016113e4906126bc565b60405180910390fd5b50505050565b606060405180602001604052806000815250905090565b60606000821415611452576040518060400160405280600181526020017f300000000000000000000000000000000000000000000000000000000000000081525090506115b2565b600082905060005b6000821461148457808061146d90612b04565b915050600a8261147d9190612986565b915061145a565b60008167ffffffffffffffff8111156114c6577f4e487b7100000000000000000000000000000000000000000000000000000000600052604160045260246000fd5b6040519080825280601f01601f1916602001820160405280156114f85781602001600182028036833780820191505090505b5090505b600085146115ab5760018261151191906129b7565b9150600a856115209190612b4d565b603061152c9190612930565b60f81b818381518110611568577f4e487b7100000000000000000000000000000000000000000000000000000000600052603260045260246000fd5b60200101907effffffffffffffffffffffffffffffffffffffffffffffffffffffffffffff1916908160001a905350600a856115a49190612986565b94506114fc565b8093505050505b919050565b60007f80ac58cd000000000000000000000000000000000000000000000000000000007bffffffffffffffffffffffffffffffffffffffffffffffffffffffff1916827bffffffffffffffffffffffffffffffffffffffffffffffffffffffff1916148061168257507f5b5e139f000000000000000000000000000000000000000000000000000000007bffffffffffffffffffffffffffffffffffffffffffffffffffffffff1916827bffffffffffffffffffffffffffffffffffffffffffffffffffffffff1916145b8061169257506116918261190c565b5b9050919050565b60008073ffffffffffffffffffffffffffffffffffffffff166002600084815260200190815260200160002060009054906101000a900473ffffffffffffffffffffffffffffffffffffffff1673ffffffffffffffffffffffffffffffffffffffff1614159050919050565b611710838383611976565b505050565b505050565b6117248383611a8a565b6117316000848484611775565b611770576040517f08c379a0000000000000000000000000000000000000000000000000000000008152600401611767906126bc565b60405180910390fd5b505050565b60006117968473ffffffffffffffffffffffffffffffffffffffff16611c64565b156118ff578373ffffffffffffffffffffffffffffffffffffffff1663150b7a026117bf610ce7565b8786866040518563ffffffff1660e01b81526004016117e19493929190612613565b602060405180830381600087803b1580156117fb57600080fd5b505af192505050801561182c57506040513d601f19601f8201168201806040525081019061182991906122a5565b60015b6118af573d806000811461185c576040519150601f19603f3d011682016040523d82523d6000602084013e611861565b606091505b506000815114156118a7576040517f08c379a000000000000000000000000000000000000000000000000000000000815260040161189e906126bc565b60405180910390fd5b805181602001fd5b63150b7a0260e01b7bffffffffffffffffffffffffffffffffffffffffffffffffffffffff1916817bffffffffffffffffffffffffffffffffffffffffffffffffffffffff191614915050611904565b600190505b949350505050565b60007f01ffc9a7000000000000000000000000000000000000000000000000000000007bffffffffffffffffffffffffffffffffffffffffffffffffffffffff1916827bffffffffffffffffffffffffffffffffffffffffffffffffffffffff1916149050919050565b611981838383611c87565b600073ffffffffffffffffffffffffffffffffffffffff168373ffffffffffffffffffffffffffffffffffffffff1614156119c4576119bf81611c8c565b611a03565b8173ffffffffffffffffffffffffffffffffffffffff168373ffffffffffffffffffffffffffffffffffffffff1614611a0257611a018382611cd5565b5b5b600073ffffffffffffffffffffffffffffffffffffffff168273ffffffffffffffffffffffffffffffffffffffff161415611a4657611a4181611e42565b611a85565b8273ffffffffffffffffffffffffffffffffffffffff168273ffffffffffffffffffffffffffffffffffffffff1614611a8457611a838282611f85565b5b5b505050565b600073ffffffffffffffffffffffffffffffffffffffff168273ffffffffffffffffffffffffffffffffffffffff161415611afa576040517f08c379a0000000000000000000000000000000000000000000000000000000008152600401611af1906127bc565b60405180910390fd5b611b0381611699565b15611b43576040517f08c379a0000000000000000000000000000000000000000000000000000000008152600401611b3a9061271c565b60405180910390fd5b611b4f60008383611705565b6001600360008473ffffffffffffffffffffffffffffffffffffffff1673ffffffffffffffffffffffffffffffffffffffff1681526020019081526020016000206000828254611b9f9190612930565b92505081905550816002600083815260200190815260200160002060006101000a81548173ffffffffffffffffffffffffffffffffffffffff021916908373ffffffffffffffffffffffffffffffffffffffff160217905550808273ffffffffffffffffffffffffffffffffffffffff16600073ffffffffffffffffffffffffffffffffffffffff167fddf252ad1be2c89b69c2b068fc378daa952ba7f163c4a11628f55a4df523b3ef60405160405180910390a4611c6060008383611715565b5050565b6000808273ffffffffffffffffffffffffffffffffffffffff163b119050919050565b505050565b6008805490506009600083815260200190815260200160002081905550600881908060018154018082558091505060019003906000526020600020016000909190919091505550565b60006001611ce2846108a2565b611cec91906129b7565b9050600060076000848152602001908152602001600020549050818114611dd1576000600660008673ffffffffffffffffffffffffffffffffffffffff1673ffffffffffffffffffffffffffffffffffffffff168152602001908152602001600020600084815260200190815260200160002054905080600660008773ffffffffffffffffffffffffffffffffffffffff1673ffffffffffffffffffffffffffffffffffffffff168152602001908152602001600020600084815260200190815260200160002081905550816007600083815260200190815260200160002081905550505b6007600084815260200190815260200160002060009055600660008573ffffffffffffffffffffffffffffffffffffffff1673ffffffffffffffffffffffffffffffffffffffff16815260200190815260200160002060008381526020019081526020016000206000905550505050565b60006001600880549050611e5691906129b7565b9050600060096000848152602001908152602001600020549050600060088381548110611eac577f4e487b7100000000000000000000000000000000000000000000000000000000600052603260045260246000fd5b906000526020600020015490508060088381548110611ef4577f4e487b7100000000000000000000000000000000000000000000000000000000600052603260045260246000fd5b906000526020600020018190555081600960008381526020019081526020016000208190555060096000858152602001908152602001600020600090556008805480611f69577f4e487b7100000000000000000000000000000000000000000000000000000000600052603160045260246000fd5b6001900381819060005260206000200160009055905550505050565b6000611f90836108a2565b905081600660008573ffffffffffffffffffffffffffffffffffffffff1673ffffffffffffffffffffffffffffffffffffffff168152602001908152602001600020600083815260200190815260200160002081905550806007600084815260200190815260200160002081905550505050565b6000612017612012846128bc565b612897565b90508281526020810184848401111561202f57600080fd5b61203a848285612a5f565b509392505050565b6000813590506120518161302e565b92915050565b60008135905061206681613045565b92915050565b60008135905061207b8161305c565b92915050565b6000815190506120908161305c565b92915050565b600082601f8301126120a757600080fd5b81356120b7848260208601612004565b91505092915050565b6000813590506120cf81613073565b92915050565b6000602082840312156120e757600080fd5b60006120f584828501612042565b91505092915050565b6000806040838503121561211157600080fd5b600061211f85828601612042565b925050602061213085828601612042565b9150509250929050565b60008060006060848603121561214f57600080fd5b600061215d86828701612042565b935050602061216e86828701612042565b925050604061217f868287016120c0565b9150509250925092565b6000806000806080858703121561219f57600080fd5b60006121ad87828801612042565b94505060206121be87828801612042565b93505060406121cf878288016120c0565b925050606085013567ffffffffffffffff8111156121ec57600080fd5b6121f887828801612096565b91505092959194509250565b6000806040838503121561221757600080fd5b600061222585828601612042565b925050602061223685828601612057565b9150509250929050565b6000806040838503121561225357600080fd5b600061226185828601612042565b9250506020612272858286016120c0565b9150509250929050565b60006020828403121561228e57600080fd5b600061229c8482850161206c565b91505092915050565b6000602082840312156122b757600080fd5b60006122c584828501612081565b91505092915050565b6000602082840312156122e057600080fd5b60006122ee848285016120c0565b91505092915050565b612300816129eb565b82525050565b61230f816129fd565b82525050565b6000612320826128ed565b61232a8185612903565b935061233a818560208601612a6e565b61234381612c3a565b840191505092915050565b6000612359826128f8565b6123638185612914565b9350612373818560208601612a6e565b61237c81612c3a565b840191505092915050565b6000612392826128f8565b61239c8185612925565b93506123ac818560208601612a6e565b80840191505092915050565b60006123c5602b83612914565b91506123d082612c4b565b604082019050919050565b60006123e8603283612914565b91506123f382612c9a565b604082019050919050565b600061240b602683612914565b915061241682612ce9565b604082019050919050565b600061242e602583612914565b915061243982612d38565b604082019050919050565b6000612451601c83612914565b915061245c82612d87565b602082019050919050565b6000612474602483612914565b915061247f82612db0565b604082019050919050565b6000612497601983612914565b91506124a282612dff565b602082019050919050565b60006124ba602983612914565b91506124c582612e28565b604082019050919050565b60006124dd603e83612914565b91506124e882612e77565b604082019050919050565b6000612500602083612914565b915061250b82612ec6565b602082019050919050565b6000612523602083612914565b915061252e82612eef565b602082019050919050565b6000612546601883612914565b915061255182612f18565b602082019050919050565b6000612569602183612914565b915061257482612f41565b604082019050919050565b600061258c602c83612914565b915061259782612f90565b604082019050919050565b60006125af602e83612914565b91506125ba82612fdf565b604082019050919050565b6125ce81612a55565b82525050565b60006125e08285612387565b91506125ec8284612387565b91508190509392505050565b600060208201905061260d60008301846122f7565b92915050565b600060808201905061262860008301876122f7565b61263560208301866122f7565b61264260408301856125c5565b81810360608301526126548184612315565b905095945050505050565b60006020820190506126746000830184612306565b92915050565b60006020820190508181036000830152612694818461234e565b905092915050565b600060208201905081810360008301526126b5816123b8565b9050919050565b600060208201905081810360008301526126d5816123db565b9050919050565b600060208201905081810360008301526126f5816123fe565b9050919050565b6000602082019050818103600083015261271581612421565b9050919050565b6000602082019050818103600083015261273581612444565b9050919050565b6000602082019050818103600083015261275581612467565b9050919050565b600060208201905081810360008301526127758161248a565b9050919050565b60006020820190508181036000830152612795816124ad565b9050919050565b600060208201905081810360008301526127b5816124d0565b9050919050565b600060208201905081810360008301526127d5816124f3565b9050919050565b600060208201905081810360008301526127f581612516565b9050919050565b6000602082019050818103600083015261281581612539565b9050919050565b600060208201905081810360008301526128358161255c565b9050919050565b600060208201905081810360008301526128558161257f565b9050919050565b60006020820190508181036000830152612875816125a2565b9050919050565b600060208201905061289160008301846125c5565b92915050565b60006128a16128b2565b90506128ad8282612ad3565b919050565b6000604051905090565b600067ffffffffffffffff8211156128d7576128d6612c0b565b5b6128e082612c3a565b9050602081019050919050565b600081519050919050565b600081519050919050565b600082825260208201905092915050565b600082825260208201905092915050565b600081905092915050565b600061293b82612a55565b915061294683612a55565b9250827fffffffffffffffffffffffffffffffffffffffffffffffffffffffffffffffff0382111561297b5761297a612b7e565b5b828201905092915050565b600061299182612a55565b915061299c83612a55565b9250826129ac576129ab612bad565b5b828204905092915050565b60006129c282612a55565b91506129cd83612a55565b9250828210156129e0576129df612b7e565b5b828203905092915050565b60006129f682612a35565b9050919050565b60008115159050919050565b60007fffffffff0000000000000000000000000000000000000000000000000000000082169050919050565b600073ffffffffffffffffffffffffffffffffffffffff82169050919050565b6000819050919050565b82818337600083830152505050565b60005b83811015612a8c578082015181840152602081019050612a71565b83811115612a9b576000848401525b50505050565b60006002820490506001821680612ab957607f821691505b60208210811415612acd57612acc612bdc565b5b50919050565b612adc82612c3a565b810181811067ffffffffffffffff82111715612afb57612afa612c0b565b5b80604052505050565b6000612b0f82612a55565b91507fffffffffffffffffffffffffffffffffffffffffffffffffffffffffffffffff821415612b4257612b41612b7e565b5b600182019050919050565b6000612b5882612a55565b9150612b6383612a55565b925082612b7357612b72612bad565b5b828206905092915050565b7f4e487b7100000000000000000000000000000000000000000000000000000000600052601160045260246000fd5b7f4e487b7100000000000000000000000000000000000000000000000000000000600052601260045260246000fd5b7f4e487b7100000000000000000000000000000000000000000000000000000000600052602260045260246000fd5b7f4e487b7100000000000000000000000000000000000000000000000000000000600052604160045260246000fd5b6000601f19601f8301169050919050565b7f455243373231456e756d657261626c653a206f776e657220696e646578206f7560008201527f74206f6620626f756e6473000000000000000000000000000000000000000000602082015250565b7f4552433732313a207472616e7366657220746f206e6f6e20455243373231526560008201527f63656976657220696d706c656d656e7465720000000000000000000000000000602082015250565b7f4f776e61626c653a206e6577206f776e657220697320746865207a65726f206160008201527f6464726573730000000000000000000000000000000000000000000000000000602082015250565b7f4552433732313a207472616e736665722066726f6d20696e636f72726563742060008201527f6f776e6572000000000000000000000000000000000000000000000000000000602082015250565b7f4552433732313a20746f6b656e20616c7265616479206d696e74656400000000600082015250565b7f4552433732313a207472616e7366657220746f20746865207a65726f2061646460008201527f7265737300000000000000000000000000000000000000000000000000000000602082015250565b7f4552433732313a20617070726f766520746f2063616c6c657200000000000000600082015250565b7f4552433732313a2061646472657373207a65726f206973206e6f74206120766160008201527f6c6964206f776e65720000000000000000000000000000000000000000000000602082015250565b7f4552433732313a20617070726f76652063616c6c6572206973206e6f7420746f60008201527f6b656e206f776e6572206e6f7220617070726f76656420666f7220616c6c0000602082015250565b7f4552433732313a206d696e7420746f20746865207a65726f2061646472657373600082015250565b7f4f776e61626c653a2063616c6c6572206973206e6f7420746865206f776e6572600082015250565b7f4552433732313a20696e76616c696420746f6b656e2049440000000000000000600082015250565b7f4552433732313a20617070726f76616c20746f2063757272656e74206f776e6560008201527f7200000000000000000000000000000000000000000000000000000000000000602082015250565b7f455243373231456e756d657261626c653a20676c6f62616c20696e646578206f60008201527f7574206f6620626f756e64730000000000000000000000000000000000000000602082015250565b7f4552433732313a2063616c6c6572206973206e6f7420746f6b656e206f776e6560008201527f72206e6f7220617070726f766564000000000000000000000000000000000000602082015250565b613037816129eb565b811461304257600080fd5b50565b61304e816129fd565b811461305957600080fd5b50565b61306581612a09565b811461307057600080fd5b50565b61307c81612a55565b811461308757600080fd5b5056fea2646970667358221220ba8167fb925bc46ffdd6438eea14254c090d3a8e1f174895286c8019a64fdd2e64736f6c63430008040033",
  "immutableReferences": {},
  "source": "// SPDX-License-Identifier: MIT\npragma solidity ^0.8.4;\n\nimport \"@openzeppelin/contracts/token/ERC721/ERC721.sol\";\nimport \"@openzeppelin/contracts/token/ERC721/extensions/ERC721Enumerable.sol\";\nimport \"@openzeppelin/contracts/access/Ownable.sol\";\nimport \"@openzeppelin/contracts/utils/Counters.sol\";\n\ncontract DiscordInvite is ERC721, ERC721Enumerable, Ownable {\n    using Counters for Counters.Counter;\n\n    Counters.Counter private _tokenIdCounter;\n\n    constructor() ERC721(\"DEPT Discord Invite\", \"DDI\") {}\n\n    function safeMint(address to) public onlyOwner {\n        uint256 tokenId = _tokenIdCounter.current();\n        _tokenIdCounter.increment();\n        _safeMint(to, tokenId);\n    }\n\n    // The following functions are overrides required by Solidity.\n\n    function _beforeTokenTransfer(\n        address from,\n        address to,\n        uint256 tokenId\n    ) internal override(ERC721, ERC721Enumerable) {\n        super._beforeTokenTransfer(from, to, tokenId);\n    }\n\n    function supportsInterface(bytes4 interfaceId)\n        public\n        view\n        override(ERC721, ERC721Enumerable)\n        returns (bool)\n    {\n        return super.supportsInterface(interfaceId);\n    }\n}\n",
  "sourcePath": "/Users/chrissutton/dev/discord-nft-auth/solidity/contracts/DiscordInvite.sol",
  "compiler": {
    "name": "solc",
    "version": "0.8.4+commit.c7e474f2.Emscripten.clang"
  },
  "schemaVersion": "3.4.8",
  "updatedAt": "2022-07-29T17:32:34.605Z",
  "networkType": "ethereum",
  "devdoc": {
    "kind": "dev",
    "methods": {
      "approve(address,uint256)": {
        "details": "See {IERC721-approve}."
      },
      "balanceOf(address)": {
        "details": "See {IERC721-balanceOf}."
      },
      "getApproved(uint256)": {
        "details": "See {IERC721-getApproved}."
      },
      "isApprovedForAll(address,address)": {
        "details": "See {IERC721-isApprovedForAll}."
      },
      "name()": {
        "details": "See {IERC721Metadata-name}."
      },
      "owner()": {
        "details": "Returns the address of the current owner."
      },
      "ownerOf(uint256)": {
        "details": "See {IERC721-ownerOf}."
      },
      "renounceOwnership()": {
        "details": "Leaves the contract without owner. It will not be possible to call `onlyOwner` functions anymore. Can only be called by the current owner. NOTE: Renouncing ownership will leave the contract without an owner, thereby removing any functionality that is only available to the owner."
      },
      "safeTransferFrom(address,address,uint256)": {
        "details": "See {IERC721-safeTransferFrom}."
      },
      "safeTransferFrom(address,address,uint256,bytes)": {
        "details": "See {IERC721-safeTransferFrom}."
      },
      "setApprovalForAll(address,bool)": {
        "details": "See {IERC721-setApprovalForAll}."
      },
      "symbol()": {
        "details": "See {IERC721Metadata-symbol}."
      },
      "tokenByIndex(uint256)": {
        "details": "See {IERC721Enumerable-tokenByIndex}."
      },
      "tokenOfOwnerByIndex(address,uint256)": {
        "details": "See {IERC721Enumerable-tokenOfOwnerByIndex}."
      },
      "tokenURI(uint256)": {
        "details": "See {IERC721Metadata-tokenURI}."
      },
      "totalSupply()": {
        "details": "See {IERC721Enumerable-totalSupply}."
      },
      "transferFrom(address,address,uint256)": {
        "details": "See {IERC721-transferFrom}."
      },
      "transferOwnership(address)": {
        "details": "Transfers ownership of the contract to a new account (`newOwner`). Can only be called by the current owner."
      }
    },
    "version": 1
  },
  "userdoc": {
    "kind": "user",
    "methods": {},
    "version": 1
  }
}